:100000000C9488000C94A7040C94A0040C949904FC
:100010000C9400000C9400000C9400000C94000060
:100020000C9400000C9400000C9400000C94000050
:100030000C9400000C9400000C9400000C94000040
:100040000C9400000C9400000C9400000C94000030
:100050000C940000FFFF39373841363435423331D4
:100060003243454630440900070008000A000600F4
:10007000040005000B000300010002000C000E004C
:100080000F0000000D000F001E00FF00FFFFFFFF2C
:100090004E6F6E6500003F0006005B004F0066007B
:1000A0006D007D0007007F006F0077007C00390045
:1000B0005E00790071007000B000D000E00080C0E8
:1000C00002000600540010006A0256001F007B0266
:1000D00066000100A30286000100A502880001005D
:1000E000A9028A000200B5028C000200B7028E004D
:1000F0000500600290000500650290001F00CD021F
:1001000096000700ED02B6000200F902BE000000F2
:10011000F894EE27ECBBF1E0FBBFEBBFE5BF8DE051
:10012000A2E0BB27ED938A95E9F780E098E0A0E68E
:10013000ED930197E9F7E0ECF0E085919591009758
:1001400061F0A591B59105901590BF01F001059062
:100150000D920197E1F7FB01F0CFEFE5EDBFE8E08D
:10016000EEBFC0E6D2E00C94B500A0E10E946605A7
:10017000E0EEEBBFEFE0E5BFE0E4E4BFE0EEEABFB6
:10018000EFEFEABBBC9ABD9ABE9ABF9AE3E3E1BB2C
:10019000EFEFE4BB929A939A969A979A7894E091AB
:1001A000C902F091CA023196E093C902F093CA02E3
:1001B000E091BF02F091C0023097D9F5E091CB02F7
:1001C000F091CC02309711F50E94920531F00E9417
:1001D0009B0519F00E94A10519F4D3010E94E503C3
:1001E000A091B602AA2372F00E94A705E093C30271
:1001F000F093C4020E94B905E1E0F0E0E093BF0291
:10020000F093C002EFEFFFEF3F0112C00E94C00564
:10021000119721F00E94C005129751F4EFEFFFEF04
:100220003F010E94B905E0E0E093CB02E093CC02ED
:10023000BFCFE091C102F091C202309711F50E9448
:10024000920531F00E949B0519F00E94A10519F456
:10025000D3010E94E503A091B602AA2372F00E9486
:10026000A705E093C502F093C602E1E0F0E0E09359
:10027000C102F093C2020E94B905EFEFFFEF3F0108
:10028000D8CFA091BF02B091C002119731F4A091D4
:10029000C102B091C202119709F0BCC0A091A302A3
:1002A000B091A4020E94C505E0939B02F0939C02CA
:1002B000E091A302F091A4020E94CA05E0939D027E
:1002C000F0939E02A091A502B091A6020E94C505DE
:1002D000E093A102F093A202E091A502F091A602A0
:1002E0000E94CA05E0939F02F093A0020E94CF05EE
:1002F0000E94D405309749F4E0919B02F0919C0252
:100300000E94CF05AE17BF070CF41DC00E94D9058F
:100310000E94D405319749F4E0919D02F0919E022C
:100320000E94D905EA17FB070CF40CC00E94DE05F9
:10033000E093A302F093A402E1E0F0E0E093AD02C9
:10034000F093AE022CC00E94CF050E94D4053197D5
:1003500049F4E091A102F091A2020E94CF05AE17EC
:10036000BF070CF41CC00E94D9050E94D405309729
:1003700049F4E0919F02F091A0020E94D905EA178A
:10038000FB070CF40CC00E94DE05E093A502F0937D
:10039000A602E1E0F0E0E093AB02F093AC02E0E013
:1003A000E093C702E093C802E091C302F091C40257
:1003B0000E94DB06E093C702F093C802E091C502F9
:1003C000F091C6020E94FC05EA0FFB1FE093C702F2
:1003D000F093C802E091A702F091A8020E94FC05E8
:1003E000EA17FB0744F4E091C702F091C802E093DA
:1003F000A702F093A8020E9401060E94FC05AE1716
:10040000BF0744F4E091C702F091C802E093A9024B
:10041000F093AA02A091BF02B091C002119731F4EB
:10042000A091C102B091C202119709F02DC0E0E085
:10043000E093BF02E093C002E093C102E093C202E6
:100440000E940606ADE20E9435050E940C0631F4BA
:10045000A091BD02B091BE02119709F008C00E94A0
:100460002905EFEFFFEF0E9412060E9417060E9477
:100470000C0621F40E941D060E9424060E942A06F2
:10048000A4E6B0E00E94CD06A091C902B091CA02D4
:10049000149724F0ACE2B1E00E94CD0686993EC0EC
:1004A0000E9429050E9417060E943206A091AD0203
:1004B000B091AE02119749F4A091A302B091A402A9
:1004C0000E94BF040E942A0606C00E940606A0E6FB
:1004D000B2E00E943806ADE20E944306A091AB0252
:1004E000B091AC02119749F4A091A502B091A60277
:1004F0000E94BF040E942A0606C00E940606A5E6C6
:10050000B2E00E943806E2E0F0E0E093CB02F09324
:10051000CC020E940606AFE20E944306A091C902E7
:10052000B091CA02149724F0ACE2B1E00E94CD066B
:10053000879929C0EFEFE4BBE0EFE7BBE0E0E8BB61
:100540000E94450658D00E9445061FD0E4EFE8BB44
:10055000EFEFF0E0E093A902F093AA02E0E0E0936D
:10056000A702E093A8020E9429050E9417060E9494
:1005700032060E94C005129731F0E1E0F0E0E0930E
:10058000CB02F093CC020BCEFFCFBA93AA93EA81B1
:10059000FB81E093F502F093F602E881F9810E9475
:1005A0004D06EA17FB072CF1E0E0E093F702E09339
:1005B000F802A091F702B091F8025997BCF40E949A
:1005C0005206E091ED02E8BBE091F502F091F602EF
:1005D0000E94CA050E945A06E091EF02E8BB0E9401
:1005E0004D060E94C5050E945A06E3CF0E9466068A
:1005F000D4CF24960895BA93AA930E9426070C811B
:100600001D8120E030E0E0E0E093F702E093F802A3
:10061000A091F702B091F80298970CF046C00E94A2
:100620005206E0E0E093F502E093F6020E944D06E8
:100630001497D4F5E091F502F091F602ADEEB2E038
:10064000EE0FFF1FAE0FBF1FEC91E8BBF8010E9439
:10065000CA05ADECB2E0EE0FFF1FAE0FBF1FEC916D
:10066000E5BBD8010E94C5058F01A2E0B0E00E9461
:10067000CD0600240016010619F4022E032A09F4FF
:1006800004C00C811D8120E030E00024001601062A
:1006900019F4022E032A09F004C00E811F8121E003
:1006A00030E00E946606C2CFB3CF0E942B07289687
:1006B0000895BA93AA93E0E0E093B502E093B602FE
:1006C000A091B502B091B602509714F5E091B50231
:1006D000F091B602ABE7B2E0EE0FFF1FAE0FBF1F07
:1006E0000E942207A881B981EA17FB0749F4E0912B
:1006F000B502F091B602E659FD4FE0810C94270552
:10070000A5EBB2E0ED91FD913196FE93EE93D8CF3B
:100710000C9427059098919A949A959A0E949B051B
:1007200031F00E946E0619F00E94A10519F4EEE066
:10073000F0E00895909A9198949A959A0E949B055A
:1007400031F00E946E0619F00E94A10519F4EDE047
:10075000F0E00895909A919A9498959A0E949B053A
:1007600031F00E946E0619F00E94A10519F4EBE029
:10077000F0E00895909A919A949A95980E949B051A
:1007800031F00E946E0619F00E94A10519F4E7E00D
:10079000F0E008950895BA93AA93A981AA237AF064
:1007A000E0E0E093B502E093B602E881F981E093DE
:1007B000B502F093B602EFEFFFEFE883F983A5E00F
:1007C000B0E00E94CD060C942705BA93AA93E0E00E
:1007D000E093B902E093BA02A881B9811E9739F576
:1007E0000E949B0519F40E946E0609F008C00E9441
:1007F00074060E9479060E9483060C9427050E94C5
:100800009B0531F40E948E060E9491060C942705E8
:100810000E946E0621F40E9497060C9427050E9400
:10082000A10521F40E949E060C94270580C0A88192
:10083000B9811D9739F5E4E0F0E00E94AA0619F4A9
:100840000E946E0609F006C00E94AF060E94830651
:100850000C9427050E949B0531F40E948E060E948D
:1008600091060C9427050E946E0621F40E949706BB
:100870000C9427050E94A10521F40E949E060C9469
:10088000270555C0A881B9811B9739F5E8E0F0E04C
:100890000E94AA0619F40E946E0609F006C00E9482
:1008A000AF060E9483060C9427050E949B0531F435
:1008B0000E948E060E9491060C9427050E946E06E7
:1008C00021F40E9497060C9427050E94A10521F4AB
:1008D0000E949E060C9427052AC0A881B98117970B
:1008E00031F5ECE0F0E00E94AA0619F40E946E06D1
:1008F00009F006C00E94AF060E9483060C942705EB
:100900000E949B0531F40E948E060E9491060C9471
:1009100027050E946E0621F40E9497060C94270575
:100920000E94A10521F40E949E060C9427050C94B8
:1009300027050E94B106E093B302F093B4020DC004
:100940000E94B106E093B102F093B20206C00E9489
:10095000B106E093AF02F093B002A2E3B0E00E94D0
:10096000CD06E991EFBFF991E991B991A9919991DA
:10097000899179916991F990199009901895BA9394
:10098000AA93E881F98106D14F01D40192DE5E2E4F
:10099000A881B981FAD05F01D5018BDE4E2E36D108
:1009A000A42D71D1A52D61D052C0BA93AA932ED196
:1009B000E881F981E659FD4FA08157D0A2E3B0E06C
:1009C0000E94CD06EFEFFFEFE883F98325D131F4E4
:1009D000A091BD02B091BE02119709F003C039D0B9
:1009E0002CD140D119D111F428D12ED133D12FC01F
:1009F000AA93EBB3EF70AE2FE881E07FEA2BEBBB5D
:100A00008DE08A95F1F7DA9A8DE08A95F1F7DA9818
:100A10008DE08A95F1F784C0AA93A881E9DFE88187
:100A2000E295E883A881E4DF85E88A95F1F778C04C
:100A3000AA93E881F0E0E750FD4FE081A981AE0F75
:100A4000EBDFE981E093FD02E881E093FE0222966C
:100A50000895A2E096D1ACE0DFDFA1E092D1E0E022
:100A6000E093FE02E093FD020895AA93A881AA30C4
:100A700031F0E091FF02A091FD02AE1760F0E0E0DE
:100A8000EA93A091FE02AF5FA093FE02D1DFA8819E
:100A9000AA3009F445C0E091FD02EF5FE093FD024A
:100AA000D89AA881B9DFD8983BC0BA93AA931A9371
:100AB000A981BA81ED91A983BA831E2FE03019F084
:100AC000A12FD3DFF5CF188123960895AA93EAB317
:100AD000E06FEABBD29AD09AD19ADA98D898D9988E
:100AE000E881E093FF02E058E093FB02E881E054E4
:100AF000E093FC02A4E1B0E00E94CD0647D146D1CC
:100B000045D1A0E275DF88EC90E00197F1F7A8E20B
:100B100083DFA4E081DFA5E87FDFA6E07DDF99DF4A
:100B2000219608950E948A033F01A091B102B091DD
:100B3000B20211970895A091AF02B091B00211973F
:100B40000895A091B302B091B40211970895A091B5
:100B5000B502B091B60229DFE091B502F091B6027C
:100B6000ABE7B2E0EE0FFF1FAE0FBF1F0E942207E0
:100B70000895EFEFFFEFE093B502F093B60208950A
:100B8000A091CB02B091CC020895E0E1F0E00E9488
:100B9000F7060895AFE0B0E00E940A070895A0911B
:100BA000C302B091C4020895E2E0F0E00E94FC06A6
:100BB0000895A091C502B091C6020895E0E0E093C7
:100BC000C702E093C802E091C302F091C4020E9400
:100BD000DB06E093C702F093C802E091C502F091F2
:100BE000C602A091C702B091C802EA0FFB1FE093B2
:100BF000C702F093C8020895A091C702B091C8023D
:100C00000895E091A902F091AA020895E091BB0233
:100C1000EA93A091BD020CCFA091BB02B091BC029F
:100C20001F970895E093BD02F093BE020895E0E09F
:100C3000E093BB02E093BC020895EFEFFFEFE09377
:100C4000BB02F093BC020895E091BD02F091BE0298
:100C50003196E8CFABEBB2E0ED91FD913196FE938A
:100C6000EE930895E0E0E093BD02E093BE020895A4
:100C70001CDFE091BB02F091BC023496E093BB0212
:100C8000F093BC020895F1DEE5CFBBDFFA93EA935F
:100C9000A091A702B091A8020895A091F502B09189
:100CA000F6020895A7EFB2E0ED91FD913196FE9323
:100CB000EE930895ADECB2E0EE0FFF1FAE0FBF1F35
:100CC000EC91E5BBA2E0B0E00C94CD06A5EFB2E05C
:100CD000ED91FD913196FE93EE930895A091B102AE
:100CE000B091B20211970895E091B902F091BA0261
:100CF0000895E093B702F093B802E0E0E093AF020A
:100D0000E093B0020895E0E0E093B102E093B20214
:100D1000A091B702B091B8020C94CB03E5DF3196F5
:100D2000E8CFA091B702B091B8020C94CB03DCDFFE
:100D30003296E093B702F093B802E5CFD5DF339651
:100D4000E093B702F093B802E0E0E093B302E093DF
:100D5000B402E7CFE093B902F093BA02ECCEC4DF5D
:100D6000C8CF0A921A92FA926A937A938A939A93C4
:100D7000AA93BA93EA93FA93EFB7EA93E1E0F0E02B
:100D800008954ADEA3E0B0E00C94CD06A0E330DE87
:100D900088EC90E00197F1F70895109639F080ED16
:100DA00097E00197F1F7A8951197C9F70895F19584
:100DB000E195F0400895EE0FFF1FEE0FFF1FEE0FBD
:100DC000FF1FEE0FFF1F08950024112490E1AA0FCA
:100DD000BB1F001C111C0E1A1F0A18F40E0E1F1E3A
:100DE00001C0A1609A9599F7FD01D00108951CD02A
:100DF000EBDF0EF4DCDF0895E894B7FF04C0A095A4
:100E0000B09511966894F7FDD2DFDEDFFD010EF498
:100E1000CEDF0895E894F7FF02C0C9DF6894EA23A3
:100E2000FB230EF4C4DF0895E894F7FF02C0BFDF90
:100E30006894B7FF06C0A095B095119600F803948A
:100E400000FA0895ED91FC91119708953A932A9331
:100E50001A930A9308953B812A8119810881089584
:00000001FF
