:080000000C9488000C944904E3
:100008000C9442040C943B040C9400000C940000E3
:100018000C9400000C9400000C9400000C94000058
:100028000C9400000C9400000C9400000C94000048
:100038000C9400000C9400000C9400000C94000038
:100048000C9400000C9400000C940000FFFF39375A
:10005800384136343542333132434546304409005D
:10006800070008000A000600040005000B00030052
:10007800010002000C000E000F0000000D000F0030
:100088001E00FF00FFFFFFFF4E6F6E6500003F0080
:1000980006005B004F0066006D007D0007007F00D2
:1000A8006F0077007C0039005E00790071007000F5
:1000B800B000D000E00080C002000600540010002C
:1000C8006A0256001F007B0266000100A302860038
:1000D8000100A50288000100A9028A000200B502F9
:1000E8008C000200B7028E00050060029000050037
:1000F800650290001F00CD0296000700ED02B600D1
:100108000200F902BE000000F894EE27ECBBF1E013
:10011800FBBFEBBFE5BF8DE0A2E0BB27ED938A955F
:10012800E9F780E098E0A0E6ED930197E9F7E0ECC5
:10013800F0E085919591009761F0A591B5910590B2
:100148001590BF01F00105900D920197E1F7FB01B1
:10015800F0CFEFE5EDBFE8E0EEBFC0E6D2E00C94EB
:10016800B500A0E10E946105E0EEEBBFEFE0E5BF5E
:10017800E0E4E4BFE0EEEABFEFEFEABBBC9ABD9A69
:10018800BE9ABF9AE3E3E1BBEFEFE4BB929A939A7E
:10019800969A979A7894E091C902F091CA0231969A
:1001A800E093C902F093CA02E091BF02F091C00245
:1001B8003097D1F5E091CB02F091CC02309709F558
:1001C8000E948D0531F00E94960519F00E949C0549
:1001D80011F4D30150D2A091B602AA2372F00E9462
:1001E800A205E093C302F093C4020E94B505E1E0C2
:1001F800F0E0E093BF02F093C002EFEFFFEF3F01A2
:1002080012C00E94BC05119721F00E94BC051297EC
:1002180051F4EFEFFFEF3F010E94B505E0E0E093F6
:10022800CB02E093CC02C0CFE091C102F091C202B0
:10023800309709F50E948D0531F00E94960519F056
:100248000E949C0511F4D30116D2A091B602AA23EC
:1002580072F00E94A205E093C502F093C602E1E0A5
:10026800F0E0E093C102F093C2020E94B505EFEFFF
:10027800FFEF3F01D9CFA091BF02B091C002119703
:1002880031F4A091C102B091C202119709F0BCC02B
:10029800A091A302B091A4020E94C105E0939B0221
:1002A800F0939C02E091A302F091A4020E94C6057B
:1002B800E0939D02F0939E02A091A502B091A60240
:1002C8000E94C105E093A102F093A202E091A50269
:1002D800F091A6020E94C605E0939F02F093A00247
:1002E8000E94CB050E94D005309749F4E0919B020B
:1002F800F0919C020E94CB05AE17BF070CF41DC0FD
:100308000E94D5050E94D005319749F4E0919D02DD
:10031800F0919E020E94D505EA17FB070CF40CC069
:100328000E94DA05E093A302F093A402E1E0F0E072
:10033800E093AD02F093AE022CC00E94CB050E9460
:10034800D005319749F4E091A102F091A2020E94F0
:10035800CB05AE17BF070CF41CC00E94D5050E9440
:10036800D005309749F4E0919F02F091A0020E94D5
:10037800D505EA17FB070CF40CC00E94DA05E093D8
:10038800A502F093A602E1E0F0E0E093AB02F0935F
:10039800AC02E0E0E093C702E093C802E091C30238
:1003A800F091C4020E94CF06E093C702F093C802FE
:1003B800E091C502F091C6020E94F805EA0FFB1F02
:1003C800E093C702F093C802E091A702F091A80257
:1003D8000E94F805EA17FB0744F4E091C702F09180
:1003E800C802E093A702F093A8020E94FD050E94AC
:1003F800F805AE17BF0744F4E091C702F091C802B0
:10040800E093A902F093AA02A091BF02B091C002A2
:10041800119731F4A091C102B091C202119709F06D
:100428002DC0E0E0E093BF02E093C002E093C10278
:10043800E093C2020E940206ADE20E9430050E94CB
:10044800080631F4A091BD02B091BE02119709F0DF
:1004580008C00E942405EFEFFFEF0E940E060E94DD
:1004680013060E94080621F40E9419060E9420061D
:100478000E942606A4E6B0E00E94C106A091C90227
:10048800B091CA02149724F0ACE2B1E00E94C10610
:1004980086993CC00E9424050E9413060E942E06DD
:1004A800A091AD02B091AE02119741F4A091A302C0
:1004B800B091A40257D00E94260606C00E940206E8
:1004C800A0E6B2E00E943406ADE20E943F06A09189
:1004D800AB02B091AC02119741F4A091A502B09182
:1004E800A60240D00E94260606C00E940206A5E683
:1004F800B2E00E943406E2E0F0E0E093CB02F09331
:10050800CC020E940206AFE20E943F06A091C902F7
:10051800B091CA02149724F0ACE2B1E00E94C1067F
:1005280087991EC0EFEFE4BBE0EFE7BBE0E0E8BB74
:100538000E944106FDD10E944106BFD1E4EFE8BB0D
:100548000E9424050E9413060E942E060E94BC05E4
:10055800129731F0E1E0F0E0E093CB02F093CC02A7
:100568001ACEFFCFBA93AA93E881F9810E94C605F3
:100578004F01D40113D05E2EA881B9810E94C10514
:100588005F01D5010BD04E2E0E940206A42D0E94B9
:100598003F06A52D0E9430050C942205BA93AA9314
:1005A800E0E0E093B502E093B602A091B502B09105
:1005B800B6025097ECF4E091B502F091B602ABE7C1
:1005C800B2E00E9449060E941607A881B981EA177D
:1005D800FB0749F4E091B502F091B602E659FD4FE8
:1005E800E0810C942205A5EBB2E00E944E06DDCF17
:1005F8000C9422059098919A949A959A0E9496053F
:1006080031F00E94540619F00E949C0519F4EEE09E
:10061800F0E00895909A9198949A959A0E94960578
:1006280031F00E94540619F00E949C0519F4EDE07F
:10063800F0E00895909A919A9498959A0E94960558
:1006480031F00E94540619F00E949C0519F4EBE061
:10065800F0E00895909A919A949A95980E94960538
:1006680031F00E94540619F00E949C0519F4E7E045
:10067800F0E008950895BA93AA93E0E0E093B902F0
:10068800E093BA02A881B9811E9739F50E949605B0
:1006980019F40E94540609F008C00E945A060E94E4
:1006A8005F060E9469060C9422050E94960531F4A3
:1006B8000E9474060E9477060C9422050E94540634
:1006C80021F40E947D060C9422050E949C0521F4C9
:1006D8000E9484060C94220580C0A881B9811D97C8
:1006E80039F5E4E0F0E00E94900619F40E945406FF
:1006F80009F006C00E9495060E9469060C9422051E
:100708000E94960531F40E9474060E9477060C94A4
:1007180022050E94540621F40E947D060C942205AD
:100728000E949C0521F40E9484060C94220555C061
:10073800A881B9811B9739F5E8E0F0E00E9490069E
:1007480019F40E94540609F006C00E9495060E94FA
:1007580069060C9422050E94960531F40E947406DD
:100768000E9477060C9422050E94540621F40E94E8
:100778007D060C9422050E949C0521F40E948406A3
:100788000C9422052AC0A881B981179731F5ECE0AD
:10079800F0E00E94900619F40E94540609F006C081
:1007A8000E9495060E9469060C9422050E949605EF
:1007B80031F40E9474060E9477060C9422050E9468
:1007C800540621F40E947D060C9422050E949C0583
:1007D80021F40E9484060C9422050C942205BA93F5
:1007E800AA93A981AA237AF0E0E0E093B502E09306
:1007F800B602E881F981E093B502F093B602EFEF13
:10080800FFEFE883F983A5E0B0E00E94C1060C94ED
:100818002205BA93AA930E940206E881F981E65953
:10082800FD4FA0810E943005A2E3B0E00E94C106FE
:10083800EFEFFFEFE883F9830E94080631F4A091F7
:10084800BD02B091BE02119709F006C00E942405AE
:100858000E9419060E942E060E94080621F40E9492
:1008680019060E9420060E9426060C9422050E9462
:100878009706E093B302F093B4020DC00E94970666
:10088800E093B102F093B20206C00E949706E0938B
:10089800AF02F093B002A2E3B0E00E94C106E99172
:1008A800EFBFF991E991B991A991999189917991BC
:1008B8006991F990199009901895BA93AA93EA81C9
:1008C800FB81E093F502F093F602E881F9810E943A
:1008D800A706EA17FB0754F1E0E0E093F702E0937C
:1008E800F802A091F702B091F8025997DCF4A7EF4B
:1008F800B2E00E944E06E091ED02E8BBE091F502FD
:10090800F091F6023FD10E94AC060E94AF06E0913A
:10091800EF02E8BB0E94A70630D10E94AC060E94F5
:10092800AF06DFCFA5EFB2E0B5D1CFCF24960895BB
:10093800BA93AA930E941A070C811D8120E030E027
:10094800E0E0E093F702E093F802A091F702B0919B
:10095800F80298970CF03FC0A7EFB2E09BD1E0E017
:10096800E093F502E093F6020E94A706149794F527
:10097800E091F502F091F602ADEEB2E086D1EC918D
:10098800E8BBF801FFD00E94AC06EC91E5BBD801AA
:10099800F4D08F01A2E0B0E00E94C1060024001646
:1009A800010619F4022E032A09F404C00C811D81E2
:1009B80020E030E000240016010619F4022E032A74
:1009C80009F004C00E811F8121E030E0A5EFB2E0FC
:1009D80061D1CACFBACF0E941F0728960895AA935B
:1009E800EBB3EF70AE2FE881E07FEA2BEBBB8DE035
:1009F8008A95F1F7DA9A8DE08A95F1F7DA988DE021
:100A08008A95F1F784C0AA93A881E9DFE881E29585
:100A1800E883A881E4DF85E88A95F1F778C0AA938E
:100A2800E881F0E0E750FD4FE081A981AE0FEBDFF0
:100A3800E981E093FD02E881E093FE0222960895A1
:100A4800A2E08FD1ACE0DFDFA1E08BD1E0E0E09362
:100A5800FE02E093FD020895AA93A881AA3031F01E
:100A6800E091FF02A091FD02AE1760F0E0E0EA938A
:100A7800A091FE02AF5FA093FE02D1DFA881AA3049
:100A880009F445C0E091FD02EF5FE093FD02D89ABA
:100A9800A881B9DFD8983BC0BA93AA931A93A981C1
:100AA800BA81ED91A983BA831E2FE03019F0A12FE6
:100AB800D3DFF5CF188123960895AA93EAB3E06FA0
:100AC800EABBD29AD09AD19ADA98D898D998E8817C
:100AD800E093FF02E058E093FB02E881E054E093E2
:100AE800FC02A4E1B0E00E94C10640D13FD13ED152
:100AF800A0E275DF88EC90E00197F1F7A8E283DFC8
:100B0800A4E081DFA5E87FDFA6E07DDF99DF2196FD
:100B180008950E94FE023F01A091B102B091B20275
:100B280011970895A091AF02B091B002119708955E
:100B3800A091B302B091B40211970895A091B502A3
:100B4800B091B6020E940D04E091B502F091B60290
:100B5800ABE7B2E0EE0FFF1FAE0FBF1F0E941607F4
:100B68000895EFEFFFEFE093B502F093B602089512
:100B7800A091CB02B091CC020895E0E1F0E00E9490
:100B8800EB060895AFE0B0E00E94FE060895A0913C
:100B9800C302B091C4020895E2E0F0E00E94F006BA
:100BA8000895A091C502B091C6020895E0E0E093CF
:100BB800C702E093C802E091C302F091C4020E9408
:100BC800CF06E093C702F093C802E091C502F09106
:100BD800C602A091C702B091C802EA0FFB1FE093BA
:100BE800C702F093C8020895A091C702B091C80245
:100BF8000895E091A902F091AA020895E091BB023C
:100C0800EA93A091BD020BCFA091BB02B091BC02A8
:100C18001F970895E093BD02F093BE020895E0E0A7
:100C2800E093BB02E093BC020895EFEFFFEFE0937F
:100C3800BB02F093BC020895E091BD02F091BE02A0
:100C48003196E8CFABEBB2E0ED91FD913196FE9392
:100C5800EE930895E0E0E093BD02E093BE020895AC
:100C68001BDFE091BB02F091BC023496E093BB021B
:100C7800F093BC020895F0DEE5CFBBDFFA93EA9368
:100C8800A091A702B091A8020895EE0FFF1FAE0F22
:100C9800BF1F0895ED91FD913196FE93EE9308954F
:100CA800A091B102B091B20211970895E091B902F2
:100CB800F091BA020895E093B702F093B802E0E029
:100CC800E093AF02E093B0020895E0E0E093B10250
:100CD800E093B202A091B702B091B8020C94F3036A
:100CE800E5DF3196E8CFA091B702B091B8020C9435
:100CF800F303DCDF3296E093B702F093B802E5CF56
:100D0800D5DF3396E093B702F093B802E0E0E093C2
:100D1800B302E093B402E7CFE093B902F093BA02CA
:100D280001CFC4DFC8CF0A921A92FA926A937A93D3
:100D38008A939A93AA93BA93EA93FA93EFB7EA93AA
:100D4800E1E0F0E00895A091F502B091F60208956F
:100D5800ADECB2E09ACFEC91E5BBA2E0B0E00C9428
:100D6800C10651DEA3E0B0E00C94C106A0E337DE73
:100D780088EC90E00197F1F70895109639F080ED2E
:100D880097E00197F1F7A8951197C9F70895F1959C
:100D9800E195F0400895EE0FFF1FEE0FFF1FEE0FD5
:100DA800FF1FEE0FFF1F08950024112490E1AA0FE2
:100DB800BB1F001C111C0E1A1F0A18F40E0E1F1E52
:100DC80001C0A1609A9599F7FD01D00108951CD042
:100DD800EBDF0EF4DCDF0895E894B7FF04C0A095BC
:100DE800B09511966894F7FDD2DFDEDFFD010EF4B1
:100DF800CEDF0895E894F7FF02C0C9DF6894EA23BC
:100E0800FB230EF4C4DF0895E894F7FF02C0BFDFA8
:100E18006894B7FF06C0A095B095119600F80394A2
:100E280000FA0895ED91FC91119708953A932A9349
:100E38001A930A9308953B812A811981088108959C
:00000001FF
