:100000000C9488000C9412030C940B030C940403BE
:100010000C9400000C9400000C9400000C94000060
:100020000C9400000C9400000C9400000C94000050
:100030000C9400000C9400000C9400000C94000040
:100040000C9400000C9400000C9400000C94000030
:100050000C940000FFFF39373841363435423331D4
:100060003243454630440900070008000A000600F4
:10007000040005000B000300010002000C000E004C
:100080000F0000000D000F001E00FF00FFFFFFFF2C
:100090004E6F6E6500003F0006005B004F0066007B
:1000A0006D007D0007007F006F0077007C00390045
:1000B0005E00790071007000B000D000E00080C0E8
:1000C00002000600540010006A0256001F007B0266
:1000D00066000100A30286000100A502880001005D
:1000E000A9028A000200B5028C000200B7028E004D
:1000F0000500600290000500650290001F00CD021F
:1001000096000700ED02B6000200F902BE000000F2
:10011000F894EE27ECBBF1E0FBBFEBBFE5BF8DE051
:10012000A2E0BB27ED938A95E9F780E098E0A0E68E
:10013000ED930197E9F7E0ECF0E085919591009758
:1001400061F0A591B59105901590BF01F001059062
:100150000D920197E1F7FB01F0CFEFE5EDBFE8E08D
:10016000EEBFC0E6D2E00C94B500A0E10E943E05CF
:10017000E0EEEBBFEFE0E5BFE0E4E4BFE0EEEABFB6
:10018000EFEFEABBBC9ABD9ABE9ABF9AE3E3E1BB2C
:10019000EFEFE4BB929A939A969A979A7894E091AB
:1001A000C902F091CA023196E093C902F093CA02E3
:1001B000E091BF02F091C0023097D9F5E091CB02F7
:1001C000F091CC02309711F50E946A0531F00E943F
:1001D000720519F00E94780519F4D3010E943F04BA
:1001E000A091B602AA2372F00E947E05E093C3029A
:1001F000F093C4020E949105E1E0F0E0E093BF02B9
:10020000F093C002EFEFFFEF3F0112C00E9498058C
:10021000119721F00E949805129751F4EFEFFFEF2C
:100220003F010E949105E0E0E093CB02E093CC0215
:10023000BFCFE091C102F091C202309711F50E9448
:100240006A0531F00E94720519F00E94780519F4D0
:10025000D3010E943F04A091B602AA2372F00E942B
:100260007E05E093C502F093C602E1E0F0E0E09382
:10027000C102F093C2020E949105EFEFFFEF3F0130
:10028000D8CFA091BF02B091C002119731F4A091D4
:10029000C102B091C202119709F0BCC0A091A302A3
:1002A000B091A4020E949D05E0939B02F0939C02F2
:1002B000E091A302F091A4020E94A205E0939D02A6
:1002C000F0939E02A091A502B091A6020E949D0506
:1002D000E093A102F093A202E091A502F091A602A0
:1002E0000E94A205E0939F02F093A0020E94A7053E
:1002F0000E94AC05309749F4E0919B02F0919C027A
:100300000E94A705AE17BF070CF41DC00E94B105DF
:100310000E94AC05319749F4E0919D02F0919E0254
:100320000E94B105EA17FB070CF40CC00E94B60549
:10033000E093A302F093A402E1E0F0E0E093AD02C9
:10034000F093AE022CC00E94A7050E94AC05319725
:1003500049F4E091A102F091A2020E94A705AE1714
:10036000BF070CF41CC00E94B1050E94AC05309779
:1003700049F4E0919F02F091A0020E94B105EA17B2
:10038000FB070CF40CC00E94B605E093A502F093A5
:10039000A602E1E0F0E0E093AB02F093AC02E0E013
:1003A000E093C702E093C802E091C302F091C40257
:1003B0000E94B306E093C702F093C802E091C50221
:1003C000F091C6020E94D405EA0FFB1FE093C7021A
:1003D000F093C802E091A702F091A8020E94D40510
:1003E000EA17FB0744F4E091C702F091C802E093DA
:1003F000A702F093A8020E94D9050E94D405AE1767
:10040000BF0744F4E091C702F091C802E093A9024B
:10041000F093AA02A091BF02B091C002119731F4EB
:10042000A091C102B091C202119709F02DC0E0E085
:10043000E093BF02E093C002E093C102E093C202E6
:100440000E94DE05ADE20E940D050E94E40531F434
:10045000A091BD02B091BE02119709F008C00E94A0
:100460000105EFEFFFEF0E94EA050E94EF050E94F1
:10047000E40521F40E94F5050E94FC050E94020695
:10048000A4E6B0E00E94A506A091C902B091CA02FC
:10049000149724F0ACE2B1E00E94A50686993CC016
:1004A0000E9401050E94EF050E940A06A091AD027C
:1004B000B091AE02119741F4A091A302B091A402B1
:1004C00057D00E94020606C00E94DE05A0E6B2E0F8
:1004D0000E941006ADE20E941B06A091AB02B091F3
:1004E000AC02119741F4A091A502B091A60240D0B0
:1004F0000E94020606C00E94DE05A5E6B2E00E9448
:100500001006E2E0F0E0E093CB02F093CC020E9410
:10051000DE05AFE20E941B06A091C902B091CA029B
:10052000149724F0ACE2B1E00E94A50687991EC0A2
:10053000EFEFE4BBE0EFE7BBE0E0E8BB0E941D06A5
:10054000BFD00E941D0686D0E4EFE8BB0E940105E3
:100550000E94EF050E940A060E949805129731F04A
:10056000E1E0F0E0E093CB02F093CC0218CEFFCFB5
:10057000BA93AA93E881F9810E94A2054F01D401A0
:100580000E94BE035E2EA881B9810E949D055F0175
:10059000D5010E94BE034E2E0E94DE05A42D0E94AE
:1005A0001B06A52D0E940D050C94FF04BA93AA9377
:1005B0000E94DE05E881F981E659FD4FA0810E9485
:1005C0000D05A2E3B0E00E94A506EFEFFFEFE88380
:1005D000F9830E94E40531F4A091BD02B091BE02FE
:1005E000119709F006C00E9401050E94F5050E94BE
:1005F0000A060E94E40521F40E94F5050E94FC050C
:100600000E9402060C94FF040E942506E093B302A8
:10061000F093B4020DC00E942506E093B102F0935E
:10062000B20206C00E942506E093AF02F093B0022A
:10063000A2E3B0E00E94A506E991EFBFF991E9912C
:10064000B991A9919991899179916991F9901990AC
:1006500009901895BA93AA93EA81FB81E093F50279
:10066000F093F602E881F9810E943506EA17FB074C
:100670002CF1E0E0E093F702E093F802A091F7029A
:10068000B091F8025997BCF40E943A06E091ED024D
:10069000E8BBE091F502F091F6020E94A2050E94EB
:1006A0004206E091EF02E8BB0E9435060E949D05DC
:1006B0000E944206E3CF0E944E06D4CF24960895AE
:1006C000BA93AA930E94FE060C811D8120E030E0BF
:1006D000E0E0E093F702E093F802A091F702B09116
:1006E000F80298970CF046C00E943A06E0E0E093CA
:1006F000F502E093F6020E9435061497D4F5E091D6
:10070000F502F091F602ADEEB2E0EE0FFF1FAE0F74
:10071000BF1FEC91E8BBF8010E94A205ADECB2E06E
:10072000EE0FFF1FAE0FBF1FEC91E5BBD8010E947B
:100730009D058F01A2E0B0E00E94A50600240016EE
:10074000010619F4022E032A09F404C00C811D814C
:1007500020E030E000240016010619F4022E032ADE
:1007600009F004C00E811F8121E030E00E944E0696
:10077000C2CFB3CF0E94030728960895BA93AA93D5
:10078000E0E0E093B502E093B602A091B502B0912B
:10079000B60250970CF5E091B502F091B602ABE7C6
:1007A000B2E0EE0FFF1FAE0FBF1F0E94FA06A88136
:1007B000B981EA17FB0741F4E091B502F091B60266
:1007C000E659FD4FE0811BC1A5EBB2E0ED91FD9133
:1007D0003196FE93EE93D9CF12C19098919A949A44
:1007E000959A80D129F00E94560611F081D119F412
:1007F000EEE0F0E00895909A9198949A959A72D1CB
:1008000029F00E94560611F073D119F4EDE0F0E0E2
:100810000895909A919A9498959A64D129F00E949B
:10082000560611F065D119F4EBE0F0E00895909AC6
:10083000919A949A959856D129F00E94560611F0F3
:1008400057D119F4E7E0F0E008950895BA93AA9318
:10085000A981AA237AF0E0E0E093B502E093B60222
:10086000E881F981E093B502F093B602EFEFFFEF74
:10087000E883F983A5E0B0E00E94A506C0C0BA9362
:10088000AA93E0E0E093B902E093BA02A881B981AB
:100890001E9701F527D119F40E94560609F007C0EA
:1008A0000E945C060E9461060E946B06A8C01AD1D5
:1008B00029F40E9476060E947906A1C00E9456067D
:1008C00019F40E947F069BC013D119F40E9486067A
:1008D00096C065C0A881B9811D9709F5E4E0F0E0F4
:1008E0000E94920619F40E94560609F005C00E9463
:1008F00097060E946B0683C0F5D029F40E94760605
:100900000E9479067CC00E94560619F40E947F0658
:1009100076C0EED019F40E94860671C040C0A8814E
:10092000B9811B97F9F4E8E0F0E00E94920611F417
:10093000BDD109F005C00E9497060E946B065FC0FA
:10094000D1D029F40E9476060E94790658C0AED113
:1009500019F40E947F0653C0CBD019F40E9486067A
:100960004EC01DC0A881B9811797C9F4ECE0F0E032
:100970000E94920611F49AD109F004C00E949706D1
:10098000AAD13DC0AFD019F4B1D1B3D138C08ED106
:1009900011F4B5D134C0ACD011F4B8D130C02FC0EF
:1009A000AA93EBB3EF70AE2FE881E07FEA2BEBBBAD
:1009B0008DE08A95F1F7DA9A8DE08A95F1F7DA9869
:1009C0008DE08A95F1F784C0AA93A881E9DFE881D8
:1009D000E295E883A881E4DF85E88A95F1F778C09D
:1009E000AA93E881F0E0E750FD4FE081A981AE0FC6
:1009F000EBDFE981E093FD02E881E093FE022296BD
:100A00000895A2E096D1ACE0DFDFA1E092D1E0E072
:100A1000E093FE02E093FD020895AA93A881AA3014
:100A200031F0E091FF02A091FD02AE1760F0E0E02E
:100A3000EA93A091FE02AF5FA093FE02D1DFA881EE
:100A4000AA3009F445C0E091FD02EF5FE093FD029A
:100A5000D89AA881B9DFD8983BC0BA93AA931A93C1
:100A6000A981BA81ED91A983BA831E2FE03019F0D4
:100A7000A12FD3DFF5CF188123960895AA93EAB367
:100A8000E06FEABBD29AD09AD19ADA98D898D998DE
:100A9000E881E093FF02E058E093FB02E881E05434
:100AA000E093FC02A4E1B0E00E94A50647D146D144
:100AB00045D1A0E275DF88EC90E00197F1F7A8E25C
:100AC00083DFA4E081DFA5E87FDFA6E07DDF99DF9B
:100AD0002196089582DE3F01A091B102B091B20249
:100AE00011970895A091AF02B091B00211970895A7
:100AF000A091B302B091B40211970895A091B502EC
:100B0000B091B6020E94D602E091B502F091B60211
:100B1000ABE7B2E0EE0FFF1FAE0FBF1F0E94FA0659
:100B20000895EFEFFFEFE093B502F093B60208955A
:100B3000A091CB02B091CC020895E0E1F0E00E94D8
:100B4000CF060895AFE0B0E00E94E2060895A091BC
:100B5000C302B091C4020895E2E0F0E00E94D4061E
:100B60000895A091C502B091C6020895E0E0E09317
:100B7000C702E093C802E091C302F091C4020E9450
:100B8000B306E093C702F093C802E091C502F0916A
:100B9000C602A091C702B091C802EA0FFB1FE09302
:100BA000C702F093C8020895A091C702B091C8028D
:100BB0000895E091A902F091AA020895E091BB0284
:100BC000EA93A091BD020CCFA091BB02B091BC02F0
:100BD0001F970895E093BD02F093BE020895E0E0F0
:100BE000E093BB02E093BC020895EFEFFFEFE093C8
:100BF000BB02F093BC020895E091BD02F091BE02E9
:100C00003196E8CFABEBB2E0ED91FD913196FE93DA
:100C1000EE930895E0E0E093BD02E093BE020895F4
:100C20001CDFE091BB02F091BC023496E093BB0262
:100C3000F093BC020895F1DEE5CFBBDFFA93EA93AF
:100C4000A091A702B091A80208950A921A92FA926E
:100C50006A937A938A939A93AA93BA93EA93FA93AC
:100C6000EFB7EA93E1E0F0E00895A091F502B091CA
:100C7000F6020895A7EFB2E0ED91FD913196FE9353
:100C8000EE930895ADECB2E0EE0FFF1FAE0FBF1F65
:100C9000EC91E5BBA2E0B0E00C94A506A5EFB2E0B4
:100CA000ED91FD913196FE93EE930895A091B102DE
:100CB000B091B20211970895E091B902F091BA0291
:100CC0000895E093B702F093B802E0E0E093AF023A
:100CD000E093B0020895E0E0E093B102E093B20245
:100CE000A091B702B091B8020C942604E5DF3196CA
:100CF000E8CFA091B702B091B8020C942604DCDFD3
:100D00003296E093B702F093B802E5CFD5DF339681
:100D1000E093B702F093B802E0E0E093B302E0930F
:100D2000B402E7CFE093B902F093BA02DBCEC4DF9E
:100D3000C8CF4ADEA3E0B0E00C94A506A0E330DE05
:100D400088EC90E00197F1F70895109639F080ED66
:100D500097E00197F1F7A8951197C9F70895F195D4
:100D6000E195F0400895EE0FFF1FEE0FFF1FEE0F0D
:100D7000FF1FEE0FFF1F08950024112490E1AA0F1A
:100D8000BB1F001C111C0E1A1F0A18F40E0E1F1E8A
:100D900001C0A1609A9599F7FD01D00108951CD07A
:100DA000EBDF0EF4DCDF0895E894B7FF04C0A095F4
:100DB000B09511966894F7FDD2DFDEDFFD010EF4E9
:100DC000CEDF0895E894F7FF02C0C9DF6894EA23F4
:100DD000FB230EF4C4DF0895E894F7FF02C0BFDFE1
:100DE0006894B7FF06C0A095B095119600F80394DB
:100DF00000FA0895ED91FC91119708953A932A9382
:100E00001A930A9308953B812A81198108810895D4
:00000001FF
